# tcpdump -X -s0 port 18000
tcpdump: verbose output suppressed, use -v or -vv for full protocol decode
listening on eth0, link-type EN10MB (Ethernet), capture size 262144 bytes
06:11:26.768706 IP 192.168.32.1.54866 > 81f949f32a9a.18000: Flags [S], seq 4289580012, win 29200, options [mss 1460,sackOK,TS val 4969767 ecr 0,nop,wscale 7], length 0
        0x0000:  4500 003c 1ecb 4000 4006 5a9d c0a8 2001  E..<..@.@.Z.....
        0x0010:  c0a8 2002 d652 4650 ffad cbec 0000 0000  .....RFP........
        0x0020:  a002 7210 c182 0000 0204 05b4 0402 080a  ..r.............
        0x0030:  004b d527 0000 0000 0103 0307            .K.'........
06:11:26.768814 IP 81f949f32a9a.18000 > 192.168.32.1.54866: Flags [S.], seq 470751280, ack 4289580013, win 28960, options [mss 1460,sackOK,TS val 4969767 ecr 4969767,nop,wscale 7], length 0
        0x0000:  4500 003c 0000 4000 4006 7968 c0a8 2002  E..<..@.@.yh....
        0x0010:  c0a8 2001 4650 d652 1c0f 1830 ffad cbed  ....FP.R...0....
        0x0020:  a012 7120 c182 0000 0204 05b4 0402 080a  ..q.............
        0x0030:  004b d527 004b d527 0103 0307            .K.'.K.'....
06:11:26.768859 IP 192.168.32.1.54866 > 81f949f32a9a.18000: Flags [.], ack 1, win 229, options [nop,nop,TS val 4969767 ecr 4969767], length 0
        0x0000:  4500 0034 1ecc 4000 4006 5aa4 c0a8 2001  E..4..@.@.Z.....
        0x0010:  c0a8 2002 d652 4650 ffad cbed 1c0f 1831  .....RFP.......1
        0x0020:  8010 00e5 c17a 0000 0101 080a 004b d527  .....z.......K.'
        0x0030:  004b d527                                .K.'
06:11:26.769093 IP 192.168.32.1.54868 > 81f949f32a9a.18000: Flags [S], seq 4227204900, win 29200, options [mss 1460,sackOK,TS val 4969767 ecr 0,nop,wscale 7], length 0
        0x0000:  4500 003c d203 4000 4006 a764 c0a8 2001  E..<..@.@..d....
        0x0010:  c0a8 2002 d654 4650 fbf6 0724 0000 0000  .....TFP...$....
        0x0020:  a002 7210 c182 0000 0204 05b4 0402 080a  ..r.............
        0x0030:  004b d527 0000 0000 0103 0307            .K.'........
06:11:26.769159 IP 81f949f32a9a.18000 > 192.168.32.1.54868: Flags [S.], seq 91222027, ack 4227204901, win 28960, options [mss 1460,sackOK,TS val 4969767 ecr 4969767,nop,wscale 7], length 0
        0x0000:  4500 003c 0000 4000 4006 7968 c0a8 2002  E..<..@.@.yh....
        0x0010:  c0a8 2001 4650 d654 056f f00b fbf6 0725  ....FP.T.o.....%
        0x0020:  a012 7120 c182 0000 0204 05b4 0402 080a  ..q.............
        0x0030:  004b d527 004b d527 0103 0307            .K.'.K.'....
06:11:26.769216 IP 192.168.32.1.54868 > 81f949f32a9a.18000: Flags [.], ack 1, win 229, options [nop,nop,TS val 4969767 ecr 4969767], length 0
        0x0000:  4500 0034 d204 4000 4006 a76b c0a8 2001  E..4..@.@..k....
        0x0010:  c0a8 2002 d654 4650 fbf6 0725 056f f00c  .....TFP...%.o..
        0x0020:  8010 00e5 c17a 0000 0101 080a 004b d527  .....z.......K.'
        0x0030:  004b d527                                .K.'
06:11:26.771598 IP 192.168.32.1.54868 > 81f949f32a9a.18000: Flags [P.], seq 1:547, ack 1, win 229, options [nop,nop,TS val 4969767 ecr 4969767], length 546
        0x0000:  4500 0256 d205 4000 4006 a548 c0a8 2001  E..V..@.@..H....
        0x0010:  c0a8 2002 d654 4650 fbf6 0725 056f f00c  .....TFP...%.o..
        0x0020:  8018 00e5 c39c 0000 0101 080a 004b d527  .............K.'
        0x0030:  004b d527 4745 5420 2f20 4854 5450 2f31  .K.'GET./.HTTP/1
        0x0040:  2e31 0d0a 486f 7374 3a20 6c6f 6361 6c68  .1..Host:.localh
        0x0050:  6f73 743a 3138 3030 300d 0a43 6f6e 6e65  ost:18000..Conne
        0x0060:  6374 696f 6e3a 206b 6565 702d 616c 6976  ction:.keep-aliv
        0x0070:  650d 0a50 7261 676d 613a 206e 6f2d 6361  e..Pragma:.no-ca
        0x0080:  6368 650d 0a43 6163 6865 2d43 6f6e 7472  che..Cache-Contr
        0x0090:  6f6c 3a20 6e6f 2d63 6163 6865 0d0a 5570  ol:.no-cache..Up
        0x00a0:  6772 6164 652d 496e 7365 6375 7265 2d52  grade-Insecure-R
        0x00b0:  6571 7565 7374 733a 2031 0d0a 5573 6572  equests:.1..User
        0x00c0:  2d41 6765 6e74 3a20 4d6f 7a69 6c6c 612f  -Agent:.Mozilla/
        0x00d0:  352e 3020 284d 6163 696e 746f 7368 3b20  5.0.(Macintosh;.
        0x00e0:  496e 7465 6c20 4d61 6320 4f53 2058 2031  Intel.Mac.OS.X.1
        0x00f0:  305f 3134 5f36 2920 4170 706c 6557 6562  0_14_6).AppleWeb
        0x0100:  4b69 742f 3533 372e 3336 2028 4b48 544d  Kit/537.36.(KHTM
        0x0110:  4c2c 206c 696b 6520 4765 636b 6f29 2043  L,.like.Gecko).C
        0x0120:  6872 6f6d 652f 3737 2e30 2e33 3836 352e  hrome/77.0.3865.
        0x0130:  3930 2053 6166 6172 692f 3533 372e 3336  90.Safari/537.36
        0x0140:  0d0a 5365 632d 4665 7463 682d 4d6f 6465  ..Sec-Fetch-Mode
        0x0150:  3a20 6e61 7669 6761 7465 0d0a 5365 632d  :.navigate..Sec-
        0x0160:  4665 7463 682d 5573 6572 3a20 3f31 0d0a  Fetch-User:.?1..
        0x0170:  4163 6365 7074 3a20 7465 7874 2f68 746d  Accept:.text/htm
        0x0180:  6c2c 6170 706c 6963 6174 696f 6e2f 7868  l,application/xh
        0x0190:  746d 6c2b 786d 6c2c 6170 706c 6963 6174  tml+xml,applicat
        0x01a0:  696f 6e2f 786d 6c3b 713d 302e 392c 696d  ion/xml;q=0.9,im
        0x01b0:  6167 652f 7765 6270 2c69 6d61 6765 2f61  age/webp,image/a
        0x01c0:  706e 672c 2a2f 2a3b 713d 302e 382c 6170  png,*/*;q=0.8,ap
        0x01d0:  706c 6963 6174 696f 6e2f 7369 676e 6564  plication/signed
        0x01e0:  2d65 7863 6861 6e67 653b 763d 6233 0d0a  -exchange;v=b3..
        0x01f0:  5365 632d 4665 7463 682d 5369 7465 3a20  Sec-Fetch-Site:.
        0x0200:  6e6f 6e65 0d0a 4163 6365 7074 2d45 6e63  none..Accept-Enc
        0x0210:  6f64 696e 673a 2067 7a69 702c 2064 6566  oding:.gzip,.def
        0x0220:  6c61 7465 2c20 6272 0d0a 4163 6365 7074  late,.br..Accept
        0x0230:  2d4c 616e 6775 6167 653a 206a 612c 656e  -Language:.ja,en
        0x0240:  2d55 533b 713d 302e 392c 656e 3b71 3d30  -US;q=0.9,en;q=0
        0x0250:  2e38 0d0a 0d0a                           .8....
06:12:42.802936 IP 192.168.32.1.54868 > 81f949f32a9a.18000: Flags [F.], seq 547, ack 1, win 229, options [nop,nop,TS val 4977377 ecr 4969767], length 0
        0x0000:  4500 0034 d206 4000 4006 a769 c0a8 2001  E..4..@.@..i....
        0x0010:  c0a8 2002 d654 4650 fbf6 0947 056f f00c  .....TFP...G.o..
        0x0020:  8011 00e5 c17a 0000 0101 080a 004b f2e1  .....z.......K..
        0x0030:  004b d527                                .K.'
06:12:42.846830 IP 81f949f32a9a.18000 > 192.168.32.1.54868: Flags [.], ack 548, win 235, options [nop,nop,TS val 4977382 ecr 4977377], length 0
        0x0000:  4500 0034 252c 4000 4006 5444 c0a8 2002  E..4%,@.@.TD....
        0x0010:  c0a8 2001 4650 d654 056f f00c fbf6 0948  ....FP.T.o.....H
        0x0020:  8010 00eb c17a 0000 0101 080a 004b f2e6  .....z.......K..
        0x0030:  004b f2e1                                .K..
